:100000000C9445040C948C040C948C040C94C01F28
:100010000C948C040C948C040C948C040C948C0420
:100020000C948C040C948C040C94D2260C94A5276C
:100030000C9443220C948C040C948C040C948C042B
:100040000C948C040C948C040C948C040C948C04F0
:100050000C948C040C94D5220C948C040C948C0479
:100060000C948C040C948C040C948C040C948C04D0
:100070000C948C040C948C040C948C040C948C04C0
:100080000C948C040C948C040C948C040C948C04B0
:100090000C948C040C948C040C948C040C948C04A0
:1000A0000C948C040C948C040C948C0429001E0079
:1000B0001F002000210022002B0014001A0008005D
:1000C00015001700E00004001600070009000A00F0
:1000D000E1001D001B000600190005000000E20001
:1000E000E30001512C004C002D00270026002500C4
:1000F000240023002E02130012000C0018001C0024
:10010000340033000F000E000D000B00E500380036
:10011000370036001000110000004D0002512A0087
:10012000280045000100010001000100010001005C
:100130003A003B003C003D003E003F0035001E02FF
:100140001F02200221022202010001000100010021
:100150000100010000000100010001000100010098
:100160000100010001000100010001004500440000
:1001700043004200410040003502270226022502CA
:1001800024022302310230022F022E022D0200002F
:100190000000010001000100010001000100010058
:1001A000010001000100010035001E001F002000B9
:1001B000210022003A003B003C003D003E003F0091
:1001C000400041004200430044004500000001009F
:1001D0000100010001000100010001000100010017
:1001E0000100010001002700260025002400230053
:1001F000000000004F00520051005000310030005C
:100200002F002E002D002E02000001000100010031
:1002100001000100000000000000000000000000DC
:1002200000000000000000000000000000000000CE
:1002300000000000000000000000000000000000BE
:1002400000000000000001000100010001000000AA
:10025000000000000000000000000000000000009E
:10026000000000000000000000000000000000008E
:10027000000000000000000000000000000000007E
:1002800000000100010001000100000000AE00AF0D
:1002900000DA0281FFD9F1DB20A4A62EAF00A0C0B6
:1002A00000A1C800AED580A81FD300408D14200047
:1002B0000000000000003E5B4F5B3E003E6B4F6B5A
:1002C0003E001C3E7C3E1C00183C7E3C18001C5727
:1002D0007D571C001C5E7F5E1C0000183C1800004F
:1002E000FFE7C3E7FF00001824180000FFE7DBE783
:1002F000FF0030483A060E00262979292600407F63
:1003000005050700407F05253F005A3CE73C5A00A1
:100310007F3E1C1C0800081C1C3E7F0014227F220C
:1003200014005F5F005F5F0006097F017F000066C9
:1003300089956A0060606060600094A2FFA29400EA
:1003400008047E04080010207E20100008082A1CE3
:100350000800081C2A0808001E10101010000C1EAF
:100360000C1E0C0030383E383000060E3E0E0600E3
:1003700000000000000000005F0000000007000710
:100380000000147F147F1400242A7F2A12002313F4
:100390000864620036495620500000080703000038
:1003A000001C224100000041221C00002A1C7F1C6E
:1003B0002A0008083E080800008070300000080885
:1003C0000808080000006060000020100804020017
:1003D0003E5149453E0000427F4000007249494974
:1003E00046002141494D33001814127F1000274563
:1003F000454539003C4A494931004121110907006E
:10040000364949493600464949291E000000140072
:1004100000000040340000000008142241001414C1
:1004200014141400004122140800020159090600A6
:100430003E415D594E007C1211127C007F494949B2
:1004400036003E41414122007F4141413E007F490B
:10045000494941007F09090901003E4141517300AA
:100460007F0808087F0000417F4100002040413F95
:1004700001007F08142241007F40404040007F027D
:100480001C027F007F0408107F003E4141413E0076
:100490007F09090906003E4151215E007F091929A3
:1004A000460026494949320003017F0103003F40CD
:1004B00040403F001F2040201F003F4038403F0089
:1004C0006314081463000304780403006159494D60
:1004D0004300007F41414100020408102000004118
:1004E00041417F00040201020400404040404000BE
:1004F0000003070800002054547840007F2844443B
:100500003800384444442800384444287F00385494
:100510005454180000087E0902001824241C780096
:100520007F080404780000447D4000002040403DE6
:1005300000007F102844000000417F4000007C0440
:10054000780478007C080404780038444444380077
:100550007C1824241800182424187C007C08040427
:10056000080048545454240004043F4424003C40F0
:1005700040207C001C2040201C003C4030403C00BF
:100580004428102844004C9090907C004464544CC3
:1005900044000008364100000000770000000041E0
:1005A000360800000201020402003C2623263C001B
:1005B000000000000080808080000000000080E0DB
:1005C00070180C1830E080000010F890103078306F
:1005D00010B8FC3810000000000000F8FCF8000023
:1005E00000000000000000000000001C9C1C000037
:1005F0000000F8FCF80000000000001CFCF8C0003F
:10060000000000000080E0F87C1C000000F0FCFC12
:10061000FC1C1C1C1C1C1C1C1C000000000000C03E
:10062000F0F8381C1C1C1C1C1C3CF8F0E000E0F02E
:10063000F0F0E0ECEEF7F37020007C7C7C7E007E36
:100640007E7E7F7F7F000080C0E07E5B4F5BFEC0D0
:100650000000C000DCD7DEDEDED7DC00C00000001A
:10066000000000000000000000000000000000008A
:1006700000000000000FBCE0818181838382870C31
:10068000183060C000001FFE90B9FFBB91983C1865
:1006900011133F1100000000000000FFFFFF0000E9
:1006A0000000000000000000000000FFFFFF00004D
:1006B0000000FFFFFF0000000000000000030F7FAC
:1006C000F8E080F0FC3F0F0100000000003F3F3FDA
:1006D0001C1C1C1C1C3C78F8F0E08000000000C3CF
:1006E000E7FF7E3C3878787070F8FFDF87000F1FD7
:1006F0003F7F7F7F7F7F3F1E0C001F1F1F3F003FFC
:100700003F3F7F7F7F00307B7F7830202030787FB5
:100710003B0003000F7F0F0F0F7F0F00030000004F
:1007200000000000000000000000000000000000C9
:10073000183C24666341C18180808080808081C1B3
:100740004162386C4CC68181808080808081C14349
:1007500062361C1800000000000000FFFFFFC0C050
:10076000C0C0C0C0C0C0C0800000007FFF7F0000CC
:1007700000007FFFFFC080000000E0E0C0C0C0E0DC
:10078000F97F1F0700000000000000000070F0E08B
:10079000E0C0C0C0C0E0F0F87F3F0F0000000F3F96
:1007A0007FF9E0E0C0C0C0C0C0E0F97F3F1F00009B
:1007B0000000000000000000000000000000000039
:1007C0000000000000000000000000000000000029
:1007D0000000000000000000000000000000000019
:1007E0000000000000000000000000000000000009
:1007F0000E034C0069006C007900350038000000E1
:1008000010036C0069006C00690075006D007300D6
:1008100000000403090409022200010100A0FA09F2
:10082000040000010301010009211101000122401F
:10083000000705810308000A1201000200000008F9
:10084000D8042DEB00010102000105010906A101F8
:10085000050719E029E715002501950875018102B2
:100860009501750881010507190029FF150026FF6C
:10087000009506750881000508190129059505757B
:10088000019102950175039101C011241FBECFEFA4
:10089000DAE0DEBFCDBF04B603FE27C08091AE050F
:1008A0009091AF05A091B005B091B1058730904B04
:1008B000A740B04BD1F41092AE051092AF05109244
:1008C000B0051092B10514BE84B7877F84BF0FB600
:1008D000F894A895809160008861809360001092E0
:1008E00060000FBEE0E0F8E3099512E0A0E0B1E09F
:1008F000ECE0FAE502C005900D92AE33B107D9F7EE
:1009000025E0AEE3B2E001C01D92AE3AB207E1F7D6
:100910000E94DE180C94DF2C0C9400008091980249
:1009200090919902A0919A02B0919B028430910516
:10093000A105B105E1F128F50097A105B10571F117
:1009400063E971E082309105A105B10549F1BF93DA
:10095000AF939F938F938EEA91E09F938F931F9213
:1009600088E18F9380E693E09F938F930E94BF2945
:100970008DB79EB70A960FB6F8949EBF0FBE8DBF77
:1009800013C088309105A105B10529F08E3091057D
:10099000A105B105E1F660EA71E002C067E771E028
:1009A00080E693E00E94B82980E693E0089566E827
:1009B00071E0F6CF80E091E00895CF939C01FB01B8
:1009C000C0E28C33910520F4DC01A053BE4FCC91E2
:1009D0001F92CF933F932F9380811F928F9381819A
:1009E0001F928F938FEB91E09F938F931F9288E1DB
:1009F0008F9387E592E09F938F930E94BF298DB7D5
:100A00009EB70E960FB6F8949EBF0FBE8DBF809115
:100A1000400290914102449761F410924102109279
:100A2000400244E150E060E270E082E492E00E9423
:100A3000B1298091400290914102FC01EE5BFD4F93
:100A4000C08301969093410280934002CF91089514
:100A500087E592E0089582E492E008950F9303E021
:100A600022E041E00E94B4050F910895CF93C82F72
:100A70000E947F16811101C0C2E08C2FCF91089592
:100A80000E947F16882389F00E948E0460E00E94F5
:100A90009A1A0E94280560E00E949A1A0E942B056B
:100AA00060E00E949A1A80E008950E94DA0460E0F3
:100AB0000E947E1AF8CFFB01228121110E94DD04E1
:100AC00081E0089581E008950C945B0508950C94ED
:100AD00066051F93CF93DF9300D000D00F92CDB760
:100AE000DEB749835A836B8330916F0289819A8183
:100AF00031111DC06623B9F02223A9F00E948C0C8D
:100B0000182F682F89819A810E94350C69817A811A
:100B1000812F0F900F900F900F900F90DF91CF913A
:100B20001F910C9417130E94630C182FEFCF0E9493
:100B30008C0C69817A81EDCFFC01262F4081518197
:100B40006281738184810C94690581E00895CF935B
:100B5000DF93D82FC92F60E00E949C056D2F7C2F5A
:100B6000DF91CF910C9467058F929F92AF92BF92C5
:100B7000CF92DF92EF92FF920F931F93CF93DF9369
:100B800000D000D0CDB7DEB76B017C0181E090E0F2
:100B9000A0E0B0E04C015D0104C0880C991CAA1CC7
:100BA000BB1C4A95D2F7B501A4014C015D0104C0FC
:100BB000880C991CAA1CBB1C2A95D2F748295929D4
:100BC0006A297B2904C0880F991FAA1FBB1F0A9599
:100BD000D2F78A019B010C211D212E213F210417F0
:100BE000150726073707F9F49C01AD012C293D298B
:100BF0004E295F2929833A834B835C8369817A81FB
:100C00008B819C810F900F900F900F90DF91CF916F
:100C10001F910F91FF90EF90DF90CF90BF90AF901A
:100C20009F908F90089580959095A095B0954C01D8
:100C30005D018C209D20AE20BF2089829A82AB82EC
:100C4000BC82DCCF0E9470140E94A1060C94A914EF
:100C50000C94AC1480E00E94A2060C94C61B08956C
:100C600008950E94100A0E9430062FEF84E39CE052
:100C7000215080409040E1F700C000000C94F92220
:100C80000F931F93CF93DF938C0161E00E949C052B
:100C9000EC01B8010E9464058823A9F1B801CE01D6
:100CA0000E94B31D882379F1B801CE010E94341C43
:100CB000882349F1B801CE010E941D1D882319F136
:100CC000F8018281882361F0CB35FDE5DF0721F152
:100CD00070F4C115ECE5DE07A1F0CF3DDC45C9F0AD
:100CE000C801DF91CF911F910F910C946205CC3513
:100CF0008DE5D807A1F0CD35DD4591F70E94A21012
:100D0000EFCF0E94310680E0DF91CF911F910F91CC
:100D100008950E945611F7CF0E94AB10E1CF0E94B8
:100D2000AE10DECF0C942F060E9445210E94A20631
:100D30000C94920608950C949A0681E008950C9400
:100D40009D060895CF93C82F0E949B068C2FCF91AC
:100D50000C949F06EF92FF920F931F93CF93DF9314
:100D6000CDB7DEB72B970FB6F894DEBF0FBECDBF61
:100D7000042F4F83152F588769877A878B87EA84DA
:100D8000FB8461110E94FD0F1E8285E0FE013796F3
:100D9000DE01119601900D928A95E1F7EF28A9F4F2
:100DA00049815A816B817C818D819E810E941C0FBB
:100DB0002B960FB6F894DEBF0FBECDBFDF91CF915B
:100DC0001F910F91FF90EF90089510231F3F41F363
:100DD000CE0101960E94A5058111E2CFE9CFFC0169
:100DE000808191810C94CE0CCF93C82F882329F158
:100DF0008CEF8C0F813AA0F46C2F8091420190917E
:100E000043010E94A121882329F08C2F0E94BD0F4D
:100E10000E9420108C2F0E94B60FCF910C942010AE
:100E200080E28C0F883048F4C77081E001C0880FE1
:100E3000CA95EAF70E94DE0FF0CFCF91089588237C
:100E400029F19CEF980F913A20F40E94BD0F0C9469
:100E5000201090E2980F983050F4877091E001C014
:100E6000990F8A95EAF7892F0E94E40FF0CF9BE54E
:100E7000980F933020F490E080E00C946321885A1E
:100E8000873120F490E080E00C94792108951F933D
:100E9000CF93DF93182FEB010E94F406209731F4D3
:100EA000812FDF91CF911F910C941F078FE99FE055
:100EB0000197F1F700C000002197F0CF70E060E0EB
:100EC000893311F460E570E00C944707882321F022
:100ED0000E94DE0F0C9420100895882321F00E94B8
:100EE000E40F0C9420100895BF92CF92DF92EF92FE
:100EF000FF920F931F93CF93DF9300D000D00F92F8
:100F0000CDB7DEB76C016D837983FC011281F5806A
:100F1000F2949FE0F9220E94D40FE82E8823C1F0BA
:100F2000E12E1123A9F08981807F803429F08D8101
:100F3000805E883008F44BC080917D0382FD47C0FD
:100F400082E00E9471100E94D40F91E0E82EE92601
:100F5000B980B2948FE0B822F8E0BF1609F4F3C06C
:100F6000FB15B8F101E00B1508F047C08EE08B0DC2
:100F70008F70823008F475C0EB2DE850FF0B34976A
:100F800020F40E9445210E94A206EE2009F4ECC143
:100F90000E94D00F80FDE8C1F60112820E94CA0FA4
:100FA0000E94250BC6010E94DA090E94CA0F0F9009
:100FB0000F900F900F900F90DF91CF911F910F9195
:100FC000FF90EF90DF90CF90BF900C94560BE12CE8
:100FD000BFCF29E0B21609F462C186E08B0D8F7095
:100FE000823050F60D81023F09F06AC189818F710C
:100FF000111163C10E94250BBFCF09810F70298198
:10100000207F11F00295007F1123A1F0002361F0F1
:101010008D81805E883018F01D81111107C0802FEE
:101020000E94DE0F0E9420108D8144C0802F0E94FC
:10103000EF0FF8CF8D810E941F07002309F49CCF8A
:101040008D81805E883018F01D81111104C0802FC1
:101050000E94E40F03C0802F0E94F50F0E94201011
:101060008BCF09810F702981207F203211F00295EA
:10107000007F3D81332381F0313009F445C01123D5
:1010800009F44FC0FF2009F445C0F601858180FFB7
:10109000CBCF8F7085833EC080917D0382FF14C0CB
:1010A000112359F0002329F0802F0E94DE0F0E94A7
:1010B000201080E00E94F4065FCF80E00E941F07AE
:1010C000002309F459CFC3CF112389F0F11006C0D2
:1010D0000E940310802B0E9466074ECF81E0F81219
:1010E000F7CF0E940310802B0E94091045CFF1100A
:1010F00006C00E941610802F0E946D073DCF91E020
:10110000F91609F439CFF5CF112331F0E5E0EF15E9
:1011100008F432CF802FDFCFF4E0FF1508F42CCF96
:10112000EACFFF2041F30D81093349F41FEF27EE89
:1011300033E0115020403040E1F700C000008D81C5
:101140000E941F0719CF8981837009F050C01111C7
:1011500013CF2D81229526952770220F220F4D81C6
:101160004F7050E070E060E0022E04C0440F551F45
:10117000661F771F0A94D2F70D8180E090E0DC01B2
:1011800004FF0FC08FE090E0A0E0B0E004C0880F43
:10119000991FAA1FBB1F2A95D2F780959095A095FD
:1011A000B09519811695169513701D838C019D01BC
:1011B000042B152B262B372B09831A832B833C8377
:1011C0001D8169817A818B819C81123051F01330AD
:1011D00059F0113019F00E949D0ACECE0E94750A76
:1011E000CBCE0E94C50AC8CE0E94730AC5CE112379
:1011F00009F448C0098100FFBFCE2D8122952695B4
:101200002770220F220F4D814F7050E070E060E098
:10121000022E04C0440F551F661F771F0A94D2F791
:101220000D8180E090E0DC0104FF0FC08FE090E0D2
:10123000A0E0B0E004C0880F991FAA1FBB1F2A9529
:10124000D2F780959095A095B09519811695169531
:1012500013701D838C019D01042B152B262B372B1E
:1012600009831A832B833C831D8169817A818B8159
:101270009C81123071F0133079F0113039F00E94F6
:10128000E40B7ACE198111FF77CEB7CF0E94BC0B49
:1012900073CE0E940C0C70CE0E94EF0A6DCE0981B5
:1012A0000F700983112329F0802F0E94250B8D8157
:1012B00012CF8D810E946D0789810E94560B5CCEF2
:1012C0000D81033F60F4003FC1F0013F89F011231D
:1012D00009F445C0F110A8CE89818F718BCE0D81A4
:1012E000033FD9F0043F99F780917D0382FF1FC02F
:1012F00089818F71112309F37DCE112349F014E008
:101300001F1508F439CE89818F710E948B0B34CE62
:1013100025E02F1508F430CEF6CF112329F089816E
:101320008F710E94000B28CE0E94FB0A25CE11234C
:1013300059F009810F710983802F0E94250B63E00A
:1013400089810E94561018CE81E00E94711011E030
:101350001F1508F011CE82E00E9471100DCEF11021
:10136000E2CE89818F71A9CF0F900F900F900F90CF
:101370000F90DF91CF911F910F91FF90EF90DF9031
:10138000CF90BF9008950F931F93CF93DF93EC01FD
:10139000688179818A810E94DA0C8C010E94340C68
:1013A0000E94720AB801CE01DF91CF911F910F9177
:1013B0000C947407CF93DF93EC01988189812B8182
:1013C0003C81232B19F089238F3F59F4DF91CF9172
:1013D0000895CE010E94C309CE01DF91CF910C94F4
:1013E000A705CE010E9440068111F3CF0E94D40FC1
:1013F000882361F38A81882349F380917D0382FDEC
:10140000E5CF82E0DF91CF910C9471100E94FD0F27
:101410000E9400100C9420100E94C40F0C94060A25
:101420000E94EC0F0C940C0A282F892F82958F7044
:10143000903C80F48A30B0F4843020F4823090F410
:1014400080E008958630E1F781E0283E88F0213F72
:10145000B9F70EC08C3011F08F3091F793FB8827CD
:1014600080F9089581E0203F39F018F4283E40F7D4
:101470000895243F29F7FCCF0895FC0180819181D4
:101480000E94CE0C0C94140ACF93DF9300D000D0AE
:101490000F92CDB7DEB70F900F900F900F900F9077
:1014A000DF91CF910895CF93DF9300D000D000D08B
:1014B000CDB7DEB726960FB6F894DEBF0FBECDBF10
:1014C000DF91CF91089508950C94630A0E94640AF5
:1014D00060939C0270939D0280939E0290939F0262
:1014E0000C94060A08950C94660ACF93DF9300D0FB
:1014F00000D0CDB7DEB769837A838B839C838091DC
:101500009C0290919D02A0919E02B0919F02298120
:101510003A814B815C81282B392B4A2B5B2B298309
:101520003A834B835C83CA01B9010F900F900F90EF
:101530000F90DF91CF910C94660ACF93DF9300D088
:1015400000D0CDB7DEB769837A838B839C8380918B
:101550009C0290919D02A0919E02B0919F022981D0
:101560003A814B815C81282339234A235B232983D9
:101570003A834B835C83CA01B9010F900F900F909F
:101580000F90DF91CF910C94660ACF93DF9300D038
:1015900000D0CDB7DEB769837A838B839C8380913B
:1015A0009C0290919D02A0919E02B0919F02298180
:1015B0003A814B815C81282739274A275B27298379
:1015C0003A834B835C83CA01B9010F900F900F904F
:1015D0000F90DF91CF910C94660A0C942E050E9417
:1015E000ED0A609398027093990280939A02909307
:1015F0009B020C94060A60E070E0CB010C94EF0AA9
:101600000F931F93CF93DF9300D000D0CDB7DEB7F9
:1016100041E050E060E070E08A019B0104C0000FEF
:10162000111F221F331F8A95D2F709831A832B8338
:101630003C83C901B8010F900F900F900F90DF917C
:10164000CF911F910F910C94EF0A0F931F93CF939B
:10165000DF9300D000D0CDB7DEB741E050E060E0CE
:1016600070E004C0440F551F661F771F8A95D2F79C
:101670008091980290919902A0919A02B0919B0258
:101680008A019B01082B192B2A2B3B2B09831A83D8
:101690002B833C83C901B8010F900F900F900F90DE
:1016A000DF91CF911F910F910C94EF0A0F931F932D
:1016B000CF93DF9300D000D0CDB7DEB741E050E04C
:1016C00060E070E004C0440F551F661F771F8A95C5
:1016D000D2F74095509560957095809198029091C1
:1016E0009902A0919A02B0919B028A019B01082362
:1016F00019232A233B2309831A832B833C83C901A3
:10170000B8010F900F900F900F90DF91CF911F9124
:101710000F910C94EF0A0F931F93CF93DF9300D098
:1017200000D0CDB7DEB741E050E060E070E004C02B
:10173000440F551F661F771F8A95D2F78091980234
:1017400090919902A0919A02B0919B028A019B010B
:10175000082719272A273B2709831A832B833C83D1
:10176000C901B8010F900F900F900F90DF91CF91AA
:101770001F910F910C94EF0ACF93DF9300D000D00C
:10178000CDB7DEB769837A838B839C83809198027F
:1017900090919902A0919A02B0919B0229813A817D
:1017A0004B815C81282B392B4A2B5B2B29833A8375
:1017B0004B835C83CA01B9010F900F900F900F907B
:1017C000DF91CF910C94EF0ACF93DF9300D000D03C
:1017D000CDB7DEB769837A838B839C83809198022F
:1017E00090919902A0919A02B0919B0229813A812D
:1017F0004B815C81282339234A235B2329833A8345
:101800004B835C83CA01B9010F900F900F900F902A
:10181000DF91CF910C94EF0ACF93DF9300D000D0EB
:10182000CDB7DEB769837A838B839C8380919802DE
:1018300090919902A0919A02B0919B0229813A81DC
:101840004B815C81282739274A275B2729833A83E4
:101850004B835C83CA01B9010F900F900F900F90DA
:10186000DF91CF910C94EF0A0895E92FEE0FE90F65
:10187000EE0FE80F8E2F877041E001C0440F8A956C
:10188000EAF7E695E695E69585E0E89FF0011124F4
:10189000E059FD4F30E020E070E05191DF011197F9
:1018A000CB01022E02C0969587950A94E2F78170CB
:1018B00081958527842385278C932F5F3F4F253083
:1018C000310559F70895E92FEE0FE90FEE0FE80FF4
:1018D0009E2F9770E695E695E69585E0E89FF001E6
:1018E0001124E059FD4F50E040E080E0219130E0CC
:1018F000092E02C0369527950A94E2F72170332706
:10190000042E01C0220F0A94EAF7822B4F5F5F4F2B
:101910004530510559F70895BF92CF92DF92EF926B
:10192000FF920F931F93CF93DF938C01C090980287
:10193000D0909902E0909A02F0909B0280919C02D4
:1019400090919D02A0919E02B0919F02C82AD92A2F
:10195000EA2AFB2ACFE1D0E0BC2ED701C6010C2E2B
:1019600004C0B695A795979587950A94D2F780FD00
:101970000EC0219788F7B12C8B2DDF91CF911F914D
:101980000F91FF90EF90DF90CF90BF900895B80136
:101990008C2F0E942B13019761F3EECFCF93DF932F
:1019A000D82FC92F0E948C0C6D2F7C2FDF91CF91E7
:1019B0000C942B131F93CF93DF93162FD72F909157
:1019C0006F02992339F0862F972FDF91CF911F91C6
:1019D0000C94CE0C882391F0862F972F0E948C0CAC
:1019E000C82F682F812F9D2F0E94350C612F7D2FCE
:1019F0008C2FDF91CF911F910C942B13862F972F53
:101A00000E94630CC82FF2CF1F93CF93DF93E09116
:101A1000A00216E08091A1028E1304C0DF91CF9145
:101A20001F910895CE2FD0E01E9FF0011124EE5596
:101A3000FD4F4081518162817381848195810E9433
:101A4000530A2196EC2FE770E5CF4091D2025091D6
:101A5000D3026091D4027091D5028091D602909108
:101A6000D7020C94530AFF920F931F93CF93DF93E7
:101A70008091D702807FD1F48091D4028823B1F085
:101A80008091A0021091A1027091D2026091D302C4
:101A9000A091D502B091D602062F0723C091400134
:101AA000D091410196E0F92E181306C0DF91CF9135
:101AB0001F910F91FF90089590E0109711F00F3F44
:101AC00019F401968770F0CFF89E9001F99E300DC1
:101AD0001124F901EE55FD4F41816413F2CF40818D
:101AE0004713EFCF42814111ECCF438154814A1B10
:101AF0005B0B4C175D0728F78091D7028F708061D0
:101B00008093D702F901E955FD4F80818F70806184
:101B1000808382ED92E00E94DA09DF91CF911F91DC
:101B20000F91FF900C94040DAF92BF92CF92DF9271
:101B3000EF92FF920F931F93CF93DF93CDB7DEB752
:101B40002B970FB6F894DEBF0FBECDBF8C0185E09A
:101B5000F801DE01179601900D928A95E1F7D80100
:101B60001296EC9012971396CD90DC9082EDA82EF1
:101B700082E0B82E2091D2029091D3024091D502FA
:101B80005091D6024115510529F0892F82238F3FAC
:101B900009F03BC1EE2009F44BC1C8010E943D0A87
:101BA000F82E882309F444C186E0F801A2EDB2E0E2
:101BB00001900D928A95E1F782ED92E00E94EF0686
:101BC0000E94330DFAC08091D702E82FE07F4617BC
:101BD000570708F0ABC0D80111963C911197E1115D
:101BE000D8C0FE2C391325C09C91921322C0E1105D
:101BF00020C08F7080618093D7020E94250D82EDF6
:101C000092E00E94DA098091D702F80185838F2D36
:101C10002B960FB6F894DEBF0FBECDBFDF91CF91EC
:101C20001F910F91FF90EF90DF90CF90BF90AF90FA
:101C300008952F81CD2829F0832F82238F3F09F02B
:101C4000A5C080E0F82FF170DF2EE091A002409156
:101C5000A10256E080FD1CC0EE20C9F28091D7029F
:101C600081608093D702F12CD2CF8E2F90E05E9FBF
:101C7000F0011124EE55FD4F6181361306C06081DD
:101C8000621303C06281E612E7CF0196E82FE77086
:101C9000E413EBCF8F8198850E94CE0C292F2295DB
:101CA0002F70903268F0225F2F70223080F49F7086
:101CB00059F0D80115969C91907F31F4D12C0AC02F
:101CC0009F7011F08823D1F3805E8830B8F3C8018B
:101CD0000E94DA09FD2C9BCFC8010E943D0A88238F
:101CE00009F4A6C0EE2009F4A3C08091D702803287
:101CF00070F02091D2023091D3023A8329831B8263
:101D0000DD82CC828E83CE0101960E94DA0986E0C4
:101D1000F801A2EDB2E001900D928A95E1F70E94E0
:101D2000330D0E94250DFF24F39471CFE11148C0BB
:101D30004F81588569857A858B850E94440A82ED9A
:101D400092E00E94DA0986E0D5011D928A95E9F7B2
:101D50000E94250D88CFC8010E943D0A8111D7CF6E
:101D60008091D70281608093D702C8010E94DA096E
:101D70004ECF4F81588569857A858B850E94440AAC
:101D800086E0D5011D928A95E9F717C081E08E257E
:101D900059CF3913A1CFF801908192139DCFE11053
:101DA0009BCF8583C8010E94DA0986E0F801A2ED85
:101DB000B2E001900D928A95E1F70E94250D27CFA0
:101DC000F8013181931388CFF8019081921384CF69
:101DD000E11082CF8583C8010E94DA0986E0D5012F
:101DE0001D928A95E9F713CFD80111968C9198131B
:101DF000B2CFF80180818213AECF86E0A2EDB2E0CF
:101E000001900D928A95E1F702CFF090D402F6018D
:101E1000E41BF50BAF016091400170914101F1109D
:101E2000D2CE4617570708F0A4CFFE2CE110DCCF26
:101E3000C8010E94DA0977CF1F93CF93DF93CDB704
:101E4000DEB72C970FB6F894DEBF0FBECDBF4F8321
:101E5000588769877A878B879C87CE0107960E946F
:101E6000940D882369F08A859B85892B39F05885E4
:101E70004F81852F84238F3F09F071C016E05FC02A
:101E800086E0FE013796DE01119601900D928A954B
:101E9000E1F78F8198852091A1024091A0026A8587
:101EA0007B85672B59F389238F3F41F330E0C901CC
:101EB0000196877099274817190671F40E94100A35
:101EC0001092A1021092A00286E0E2EDF2E0DF01A2
:101ED0001D928A95E9F7D2CF96E0929FD001939F09
:101EE000B00D1124AE55BD4FFE01319601900D92FB
:101EF0009A95E1F78093A1020E94040DBFCF819FC4
:101F0000C00111248E559D4F0E94940D8823E9F045
:101F1000E091A0021E9FF0011124EE55FD4F40817B
:101F2000518162817381848195810E94530A8091DD
:101F3000A00290E00196877099278093A00280917B
:101F4000A0029091A1028913DACF2C960FB6F894D3
:101F5000DEBF0FBECDBFDF91CF911F910895698580
:101F60007A858B859C850E94530A88CF682F809143
:101F70004201909143010C94DB21682F8091420132
:101F8000909143010C94DD21809142019091430195
:101F90000C94DF218091D8028595859585950895CB
:101FA0008091D802877008959091D802977081E04F
:101FB00009F480E008958091E40208959091E4028C
:101FC000982B9093E4020895982F90958091E402C5
:101FD00089238093E40208951092E4020895909179
:101FE000E302982B9093E3020895982F90958091A7
:101FF000E30289238093E30208951092E302089597
:102000001092E20208958091D902089508950C94E7
:10201000061090917D0392FD08C09091D902981707
:1020200021F08093D9020C94071008958091D90271
:10203000882329F01092D90280E00C9407100895AB
:10204000E0914201F09143018091E4028083E091AC
:102050004201F091430180819091E302892B8083BA
:10206000E0914201F091430180819091E202892B3D
:1020700080839091D902992381F0E0914201F091FF
:1020800043018081892B808380914201909143019B
:102090000E948F2181110E9416108091420190911F
:1020A00043010C94582108950C94531090917D0392
:1020B00092FD10C098E0899F90011124622B6093DB
:1020C000D8020E94250B8091D8028595859585952B
:1020D0000C9454100C94250B1092D80280E00C94B0
:1020E00054109091D802809589238093D802282F8C
:1020F000277091F4282F082E000C330B921713062B
:1021000059F090917D0392FD07C085958595859541
:102110000E94560B0C946C10089590917D0392FBD5
:10212000222720F9281769F080FB92F990937D030C
:1021300080917C0390917D030E94D21082E00C94E8
:102140007110089580917D0382FB882780F991E0CA
:1021500089270C948D1081E00C948D1080E00C94F4
:102160008D1090E080E00E946E2C9C0181E0293E61
:102170003E4F09F080E0089582E090E00C94662CD8
:1021800083E090E00C94662CCF9384E090E00E9472
:10219000662CC82F82E290E00E94662C982F8C2F2C
:1021A000CF910895CF93682FC92F84E090E00E94CB
:1021B000742C6C2F82E290E0CF910C94742CAB01C4
:1021C000BC018FE090E00C94862CAB01BC0183E154
:1021D00090E00C94862C60E070E0CB010C94E5104C
:1021E00060E070E0CB010E94DF100C94EB1069EE10
:1021F0007EEF90E080E00E94922C60E082E090E030
:102200000E94742C60E083E090E00E94742C109295
:102210009C0210929D0210929E0210929F0260E01A
:1022200084E090E00E94742C60E082E290E00E94E2
:10223000742C60E085E090E00E94742C60E086E001
:1022400090E00E94742C6FEF87E090E00E94742C65
:1022500040E050E0BA0188E090E00E94862C60E007
:102260008DE090E00E94742C40E050E0BA0188E1DB
:1022700090E00E94862C60E087E190E00E94742C40
:1022800040E050E0BA018CE190E00E94862C70E0C2
:1022900060E080E290E00E94922C40E050E0BA01C1
:1022A00088E190E00E94862C0C94F0100C94F710BA
:1022B000682F8EE090E00C94742C0E947F22609333
:1022C000F4027093F5028093F6029093F702609304
:1022D000F0027093F1028093F2029093F30208955A
:1022E00085B7806885BF85B7806885BF08950895E4
:1022F00008950C94771108950C947B110E9470112D
:102300008DE694E10E943B210E9478110C94791192
:102310000C947F16089508950E948A110C948B11D5
:102320000E946A220E940A140E9457150E94EB180C
:1023300080E00E9448190C947C119F92AF92BF924A
:10234000CF92DF92EF92FF920F931F93CF93DF9381
:1023500000D000D00F92CDB7DEB70E94EC15D82E7A
:1023600081110E945D1186EEA82E82E0B82E10E049
:1023700000E0902E802F0E94AE14F82EF501E1901F
:102380005F01E81609F451C08091F80281FD0E94B6
:10239000B4148E2D8F25C12CEE24E394982F9E210A
:1023A00009F43EC00E948811882399F0C9829A825C
:1023B000FE2081E009F480E08B830E94732281601B
:1023C000782F9D838C8349815A816B81892F0E944C
:1023D000AA06F801EA51FD4F80818E2580830E9474
:1023E000E31BD1100E949F1A0E9445219091E502A3
:1023F000891791F10E9445218093E5020F900F907B
:102400000F900F900F90DF91CF911F910F91FF9040
:10241000EF90DF90CF90BF90AF909F900C94A2066A
:10242000C394EE0CF6E0CF12B9CF0F5F1F4F0A3006
:10243000110509F09ECF8FEF89838A831B820E944A
:1024400073228160782F9D838C8349815A816B81AF
:10245000892F0E94AA06C3CF0F900F900F900F9064
:102460000F90DF91CF911F910F91FF90EF90DF9030
:10247000CF90BF90AF909F900895CF93DF930E942D
:102480002F13EC01811523E59207E0F5811532E564
:10249000930708F0A2C0C11580E2D807E8F4CF3F47
:1024A000D10509F068F4C53AD10570F4C430D105FE
:1024B00038F481E0219709F080E0C82F20E0D22F86
:1024C000CE01DF91CF910895CE01805E91090897EA
:1024D000B8F3D0E0C0E0F4CFC11531E5D30768F41C
:1024E000C11580E5D80708F05BC0CE019054811576
:1024F000904178F7DF70D06AE3CFDC2FCC27C16F33
:10250000D06ADECF811539E59307A0F5C11588E5BE
:10251000D80708F07AC0C11525E5D207C8F4C1155F
:1025200034E5D30708F06CC09E012370332781E0A7
:1025300090E002C0880F991F2A95E2F7C695C695CC
:1025400020E2C29FE0011124C82BD92BDA68B8CF52
:10255000CE0195558F3F910511F008F0BACF8C2F21
:102560000E94C713C82FD0E0DC2FCC27CC27DF7107
:10257000D062A6CF81153AE5930708F44BC0905678
:102580008115904208F0A5CF8D2F8F710E94C7133F
:1025900090E0982F882788279F718C2BEC01E8CF3B
:1025A0009E0174E0369527957A95E1F723708C2F7C
:1025B00086958695837030E2839FC0011124922B0B
:1025C000C37021E030E002C0220F331FCA95E2F74A
:1025D000822B932BEC01DC6873CF9C012370332793
:1025E00081E090E002C0880F991F2A95E2F7C69516
:1025F000C69520E2C29FE0011124C82BD92BEBCF56
:10260000DC2FCC27C46FD06A5BCFDC2FCC27C06F08
:10261000D06A56CF8F700E94C71334E0D695C79505
:102620003A95E1F7CF709C2FEC01D06949CF972FF5
:1026300070E026E0929F600D711D1124FB019CE368
:10264000899FE00DF11D1124EE0FFF1FE455FF4F90
:102650008591949108950E9417130C943D12803E29
:10266000910599F1C8F48133910509F476C048F4D5
:102670008932910509F46AC08A32910509F474C05F
:10268000089589339105D1F082389105B9F08533E9
:10269000910509F454C00895843E910599F138F4E8
:1026A000823E9105F9F0833E910509F10895863E39
:1026B000910599F1873E9105B9F1089520917C0328
:1026C0002370A1F080EE90E0089520917C0320FD1E
:1026D00052C030917D0330FF09C024FF4FC090E00D
:1026E00080E004C020917C0322FDF7CF0895209163
:1026F0007C0322FD46C030917D0330FDE3CF24FFF3
:10270000F5CFEDCF20917D0321FFF0CF80917C03A9
:1027100084FDE5CF87EE90E0089520917C0323FFB0
:10272000E5CF24FDDCCFF6CF20917C0323FD2CC028
:1027300030917D0331FFE3CF84EE90E00895209146
:102740007C0325FFD3CF89E290E0089520917C039C
:1027500025FFCCCF85E390E0089520917C0326FFF0
:10276000C5CF8AE290E0089520917C0326FFBECF7A
:1027700081E390E0089589E390E0089583EE90E08E
:10278000089582EE90E0089586EE90E0089590918D
:102790007C0392FF06C0282F28712830F9F4877F28
:1027A000846093FF06C0282F28712831F1F4877EBA
:1027B000846120917D0320FF06C0382F38713830A6
:1027C000D9F4877F816021FF06C0282F2871283126
:1027D000D1F4877E816194FD877E0895282F24712E
:1027E0002430F9F68B7F8860DCCF282F24712431C8
:1027F00001F78B7E8861DDCF382F3171313019F7C9
:102800008E7F8860E0CF282F2171213121F78E7EC5
:102810008861E1CF109278031092790310927A03C5
:1028200010927B030895CF92DF92EF92FF92CF93A5
:10283000DF9300D000D0CDB7DEB76B017C010E94E2
:102840007F1681110EC00E947F22C61AD70AE80A9D
:10285000F90AC0927803D0927903E0927A03F09259
:102860007B030F900F900F900F90DF91CF91FF900F
:10287000EF90DF90CF900895CF93DF9300D000D0FA
:10288000CDB7DEB70E947F16882341F00F900F90DE
:102890000F900F90DF91CF910C947F220E947F22A6
:1028A00069837A838B839C838091780390917903E9
:1028B000A0917A03B0917B0329813A814B815C819D
:1028C000280F391F4A1F5B1FCA01B9010F900F90D3
:1028D0000F900F90DF91CF91089580E008950895B3
:1028E000CF93DF9300D000D0CDB7DEB70E94B110F8
:1028F000811102C00E9456110E94BC108093F80200
:102900000E94C41090937D0380937C030E946F14F7
:102910000E94C010282F30E050E040E0CA01B90109
:102920000E94730A8091980290919902A0919A0254
:10293000B0919B0289839A83AB83BC83BC01CD0198
:102940000F900F900F900F90DF91CF910C94ED0AA4
:1029500008950C94A81408950C94AB14E82FF0E09B
:10296000E857FC4F80810895089580EA8A95F1F731
:10297000089500C008950C94B514F894E82FE295DA
:10298000EF70F0E041A18F7021E030E0B90102C0AA
:10299000660F771F8A95E2F7CB01962F90959423C7
:1029A00091A392A1892B82A37894089508950C9401
:1029B000D614CF93DF93C2E1D2E089918F3F11F01B
:1029C0000E94BD1482E0C731D807B9F7CCE0D2E04D
:1029D00089918F3F11F00E94BD1482E0C231D80767
:1029E000B9F7DF91CF910895CF92DF92EF92FF92E6
:1029F0000F931F93CF93DF93EC01D62E062F10E099
:102A0000C8018E5E9D4F7C01FC0180818F3F09F4DF
:102A100045C0F894E82FE295EF70F0E091A18F7037
:102A200021E030E001C0220F8A95EAF7892F822B3E
:102A300081A382A12095282322A378940E94B9140F
:102A4000ECE0F2E042E152E091E0C12C81918F3F55
:102A500079F0A82FA295AF70A05EB0E02C9130E085
:102A60008F7002C0359527958A95E2F7892F20FD52
:102A700080E0C82A990F4E175F0741F7F701808160
:102A80008F3F11F00E94BD1461E0C11001C060E0F1
:102A90008D2D0E94BB14C00FD11FC882DF91CF9132
:102AA0001F910F91FF90EF90DF90CF9008950E94BB
:102AB0009916809144018091440195E0811190E044
:102AC0009093930385E0891B809392030E94D9140D
:102AD0008AE0E8E8F3E0DF01982F1D929A95E9F784
:102AE000EEE7F3E0DF011D928A95E9F785E00E94A9
:102AF00048160E9422060C94A316DF92EF92FF92D2
:102B00000F931F93CF93DF9300D000D00F92CDB7D8
:102B1000DEB70E947F16182F60919303882309F473
:102B20004EC01A821982FE01339683E0DF011D92A6
:102B30008A95E9F7862F90E032977F01BF01885789
:102B40009C4F0E94B116DE2C0F2D882301F180913D
:102B5000920390E045E050E0B70188579C4F0E94F7
:102B60009B2921E02093F902892BE1F410E00E94D7
:102B70002806812F0F900F900F900F900F90DF91EC
:102B8000CF911F910F91FF90EF90DF90089580916A
:102B9000F902882359F385E0D7011D928A95E9F758
:102BA0001092F902A0919203B0E0A857BC4F85E0C3
:102BB000ED2DF02F01900D928A95E1F7D8CF70E0BE
:102BC00068577C4F8091920390E088579C4F0E94F9
:102BD00047170E94D714CDCFDF92EF92FF920F9349
:102BE0001F93CF93DF93CDB7DEB72A970FB6F89434
:102BF000DEBF0FBECDBF1A821982FE01339688E078
:102C0000DF011D928A95E9F7F12C8E010F5F1F4FAE
:102C10006F2DC8010E94F414F394D02EE12EB5E07C
:102C2000FB12F6CF4AE050E0B8018EE793E00E9435
:102C30009B298C0121E0892B09F420E00115110565
:102C400049F08AE0ED2DFE2DAEE7B3E001900D9244
:102C50008A95E1F76091930370E068577C4F45E0F7
:102C60008EE793E00E94491681E090E0012B11F479
:102C70000E947D152A960FB6F894DEBF0FBECDBF19
:102C8000DF91CF911F910F91FF90EF90DF9008950A
:102C90000895FF920F931F93CF93DF93F82E092F80
:102CA000162FD72FC42F222349F081E08093FC02F6
:102CB0000E9473229093FB028093FA028091FC029F
:102CC0008823A1F08091FA029091FB020E949F223A
:102CD000059760F0EF2DF02FA12FBD2FCF018C0FA6
:102CE000911DE817F90741F41092FC02DF91CF9192
:102CF0001F910F91FF90089521912D93F2CF809114
:102D0000FF02811107C00E945F29882351F081E0F2
:102D10008093FF0281E09091FF02913009F080E002
:102D2000089582E08093FF020E945A29F3CF0C9409
:102D30007F160E949716809344010E947F1681118E
:102D40000C94E91608950E947F16811102C00C941C
:102D5000EB16089581E0909100039A3008F080E02E
:102D600008950F931F93CF93DF93EC01162F072F36
:102D7000809100038A30C0F4612F702FCE010E9431
:102D80004517C82F811122C0809100038F3FB9F4ED
:102D90000E9473229093FE028093FD028C2FDF919C
:102DA000CF911F910F9108958091FD029091FE02A5
:102DB0000E949F22843F9140F8F6C0E0EFCF8F5FE2
:102DC000809300038A3020F7C1E0E8CF109200031F
:102DD000E5CF0C94791F0C947C1FCF92DF92EF9279
:102DE000FF920F931F93CF93DF93FA01690178014C
:102DF000C82F880FDD0B3097B9F08AE08C9FD00187
:102E00008D9FB00D1124AB5BBE4F13968D919C919D
:102E100014978F5F9C4F12964C9150E0E417F50782
:102E200008F4AF010E94A829CE010E948720892BB7
:102E300011F5E114F104E9F08AE08C9FF0018D9F17
:102E4000F00D1124EB5BFE4F458150E0E416F506D2
:102E500008F4A7018AE08C9FF0018D9FF00D1124EA
:102E6000EB5BFE4F668177816F5F7C4FC6010E94EE
:102E7000A82981E001C080E0DF91CF911F910F91DF
:102E8000FF90EF90DF90CF9008950C9476180C94FB
:102E900098180F931F93CF93DF93CDB7DEB7289782
:102EA0000FB6F894DEBF0FBECDBF8091180390918E
:102EB0001903A0911A03B0911B03BC01CD010E941C
:102EC000AE2211E0643671058105910520F10E9462
:102ED0003C14DC01CB010296A11DB11D89839A83AC
:102EE000AB83BC8310E000E030E020E044E050E041
:102EF000BE016F5F7F4F82E00E94ED16182F88237E
:102F000051F00E947F2260931803709319038093FD
:102F10001A0390931B03812F28960FB6F894DEBFF7
:102F20000FBECDBFDF91CF911F910F910895AF924A
:102F3000BF92CF92DF92EF92FF920F931F93CF93A6
:102F4000DF93F82EE92ED62EC72E89010E94AA16ED
:102F5000AA24A394B12C882319F08AE0A82EB12CBE
:102F6000C1E0D0E0F8946D2D7C2D8F2D9E2DF801C1
:102F700009957894811104C02196AC16BD065CF4C5
:102F8000DF91CF911F910F91FF90EF90DF90CF9045
:102F9000BF90AF900895CC9F9001CD9F300D300D24
:102FA000112490E080E045E34A95F1F70000019696
:102FB00028173907C1F7D6CFAF92BF92CF92DF92D1
:102FC000EF92FF920F931F93CF93DF93CDB7DEB7AE
:102FD0002A970FB6F894DEBF0FBECDBF7B01A0903D
:102FE0001C02B0901D0201E010E09E012A5F3F4FDD
:102FF00050E040E070E060E080E00E94ED16182FA5
:10300000882309F44EC065018FEFC81AD80A809151
:10301000140390911503A0911603B0911703BC01FE
:10302000CD010E94AE226F83788789879A876436A4
:1030300071058105910568F105E010E09E012F5FA3
:103040003F4F50E040E070E060E081E00E94ED160C
:10305000082F65E070E0C6010E94EC1811E09E8127
:10306000981310E0102341F10E947F226093140313
:1030700070931503809316039093170385E0FE0168
:103080003196AFE0B3E001900D928A95E1F711E03F
:1030900013C065E070E0C6010E94EC189E818913A0
:1030A000CBCF85E0F5013196DE01119601900D92AE
:1030B0008A95E1F71111E2CF85E0EFE0F3E0D70167
:1030C00001900D928A95E1F7812F2A960FB6F89418
:1030D000DEBF0FBECDBFDF91CF911F910F91FF904B
:1030E000EF90DF90CF90BF90AF9008950F931F9314
:1030F000CF93DF93D82FC92F8B012CED37E14EE111
:1031000052E00E949717882369F029E437E14BE2E7
:1031100052E0B8018D2F9C2FDF91CF911F910F911D
:103120000C94971780E0DF91CF911F910F91089534
:103130000F931F93CF93DF93FB01F894C0911C0270
:10314000D0911D02CE01019625E0DC0101900D9287
:103150002A95E1F765E070E00E94EC188883789486
:10316000F8946E817F818885998500910B03109179
:103170000C0320910D0330910E0360177107820735
:10318000930751F060930B0370930C0380930D032E
:1031900090930E030E9413147894DF91CF911F91A6
:1031A0000F9108950E9445240E9490110C9451247F
:1031B0000E9455240E949D110C946F240E94FD21B1
:1031C0000E942C240E947E110E94D2180E94D818BE
:1031D0000E948C11FBCF0895FC01680F791F8FEFBF
:1031E00091E36E177F0709F408952191822728E063
:1031F00030E087FF06C0880F892721503109C9F7C1
:10320000F0CF880FFACFCF92DF92EF92FF920F9319
:103210001F93CF93DF936C017B0164E670E088E736
:103220000E940E1EEC018601EC0CFD1C97FD0EC0E9
:10323000F801849164E670E00E94871EEC01892BFE
:1032400029F40F5F1F4FE016F10691F70E94141F3B
:10325000CE01DF91CF911F910F91FF90EF90DF9002
:10326000CF9008950895E5E9F3E080E092E0DF0172
:103270009C011D9221503040E1F7F0939C05E093B2
:103280009B058FEF9FEF909348038093470308952A
:10329000CF93DF9300D000D0CDB7DEB70E943219B4
:1032A0000E94360590E280FF90E88093430390935C
:1032B00042030E94081E6DE070E083EA92E00E94E3
:1032C0000319892B41F080E00F900F900F900F9021
:1032D000DF91CF9108958091430363E070E081FD19
:1032E00028C080EA92E00E940319892B61F76DE003
:1032F00070E080E992E00E940319892B21F70E9477
:103300007F22DC01CB01805A9541AF4FBF4F8093A4
:10331000970590939805A0939905B0939A050E94FC
:10332000331981E080934603809345031092440350
:10333000CBCF8DE992E0D7CF2091420336E0839F37
:10334000C0011124629F800D911D1124811522E07E
:10335000920714F090E080E08B569C4F90939C0570
:1033600080939B05089520919B0530919C052F58D3
:10337000334040914203642F70E0C9010E947829D4
:10338000481B463010F4240F311D211582E0380708
:1033900010F030E020E02B563C4F30939C052093FA
:1033A0009B0508951F93CF93DF93982F162F81E0ED
:1033B0009A3019F09D3031F480E0DF91CF911F9168
:1033C0000C944C1AC0919B05D0919C0586E0FE019F
:1033D000ACE1B3E001900D928A95E1F7903EC8F020
:1033E00086E0FE0111928A95E9F711111EC0C09185
:1033F0009B05D0919C0546E050E0BE018CE193E036
:103400000E949B29892BF9F4DF91CF911F910C9495
:10341000B319F6E09F9FB001112460557D4F46E03F
:1034200050E0CE010E949229E0CFE0919B05F091FF
:103430009C059F012A5F3F4F2E173F07C1F28081F5
:1034400080958193F9CFC559D340CE0125E096955B
:1034500087952A95E1F721E030E0A90102C0440FE9
:10346000551F8A95E2F7CA014091470350914803DE
:10347000842B952B259645E0D695C7954A95E1F77F
:1034800002C0220F331FCA95E2F7822B932B909331
:10349000480380934703B8CFCF93E82F20919B0533
:1034A00030919C052559334040914203642F70E0D0
:1034B000C9010E947829481B842FEE2369F066E039
:1034C0000E946C29C82FC15010F4CF91089560E07C
:1034D00080E20E94D219F7CFA901480F511D411572
:1034E000524018F080E030E020E0280F311D2B56CC
:1034F0003C4F30939C0520939B05E7CFFF920F93A1
:103500001F93CF93DF93EC01F62EFC010190002076
:10351000E9F78F0101501109C017D10730F0DF9191
:10352000CF911F910F91FF9008956F2D89910E9467
:10353000D219F2CF0E947E1A81E00C944C1ACF93DC
:10354000DF9300D000D0CDB7DEB780914603811164
:1035500009C0809145030F900F900F900F90DF915D
:10356000CF9108950E947F22DC01CB01805A9541C2
:10357000AF4FBF4F8093970590939805A0939905FF
:10358000B0939A05809145038111E3CF62E070E02A
:103590008EE892E00E940319892BD9F681E080938E
:1035A0004503D7CF2F923F925F926F927F928F9277
:1035B0009F92AF92BF92CF92DF92EF92FF920F93C2
:1035C0001F93CF93DF9380914603882369F0209166
:1035D0004703309148032115310531F080914403B0
:1035E00061E070E0882399F0DF91CF911F910F91F6
:1035F000FF90EF90DF90CF90BF90AF909F908F9013
:103600007F906F905F903F902F9008958F5F082F6D
:1036100010E01B01082E02C0220C331C0A94E2F7B2
:10362000A90142215321452B89F320914303922F75
:10363000917020FD45C098013695279536952795C0
:103640008295880F80763FE1380F80936501209343
:103650006801309366019093690124E630E047E009
:1036600050E063E671E088E70E94B61E892B09F0FE
:10367000BBCFA80125E0440F551F2A95E1F78091A3
:10368000430380FD25C04B565C4F04E610E020E26A
:1036900030E060E488E70E94E31E892B09F0A4CFA4
:1036A0000E949F1AE101C095D095809147039091A7
:1036B0004803C823D923D0934803C093470394CF2A
:1036C000880F880F880F37E0380F20E093E0BDCFD8
:1036D000E2E2F3E080E2DF011D928A95E9F7AAE3D6
:1036E000B2E006E312E08EE3C82E82E0D82E97E027
:1036F000592E772473949D91E80189918E01BA0126
:10370000680F711D6B567C4FE92FF0E0EE5DFC4FAA
:1037100090E080E0652C681A872C082E01C0880C88
:103720000A94EAF77B01A12CE701B9907E01B82049
:10373000262D2A192770922E022E000C330BDB2D1A
:1037400001C0DD0F9A94EAF79D2E3195219531093C
:103750002770332701C0B6942A95EAF79B28208169
:10376000922A9082A39428E0A212DECF019631968D
:103770008830910579F6CA16DB0609F0BCCF04E65D
:1037800010E020E230E042E253E083CF8091450335
:1037900090914603911103C091E0892708958823F1
:1037A00069F062E070E08CE892E00E940319892BD6
:1037B00019F08091450308951092450380914503C7
:1037C000EBCF0C944005CF93DF9300D000D0CDB762
:1037D000DEB780914603882309F43FC080919505A8
:1037E000909196050E949F22C29760F00E947322DA
:1037F000909396058093950560E080E00E949C1967
:103800000E94E11B0E94D21A80914503882329F16E
:103810000E947F2269837A838B839C8380919705A2
:1038200090919805A0919905B0919A0529813A81C6
:103830004B815C81281B390B4A0B5B0BDA01C901F8
:103840008F3F9F4FAF4FBF4740F40F900F900F90A7
:103850000F90DF91CF910C94C61B0F900F900F909B
:103860000F90DF91CF910895CF93DF93EC01FB018F
:103870008281882309F4DFC0C430FDE5DF0710F53D
:10388000CB3F9CE5D90730F49E0122503C452431C2
:103890003105E0F40E94C41090937D0380937C0373
:1038A000C631FCE5DF0710F5C2308CE5D80788F497
:1038B00080917C0390917D030E94D2100E94100A97
:1038C00080E004C0C236EDE5DE0721F3DF91CF9141
:1038D0000895FE01E350FC4580917C038160E33153
:1038E000F10518F5EF51F34D0C948C29C4309DE58A
:1038F000D90770F4CB3FECE5DE07D0F2FE01EC5FB8
:10390000FC45E830F105E0F4EC50F34D0C948C29C3
:10391000C236DD4569F690917C03892F8F7E94FF36
:10392000806103C080917C03826080937C03C0CF60
:1039300080917C038460F9CF80917C038860F5CF0F
:1039400080917D03816080937D03B2CF80917D0360
:103950008260F9CF80917C038061E7CF80917C0306
:103960008062E3CF80917C038064DFCF0E94100AE5
:1039700080917C038068D9CF80917C038C60D5CF07
:1039800080917D038360DFCF80917C038E7FCDCFDC
:1039900080917C038D7FC9CF80917C038B7FC5CFC5
:1039A00080917C03877FC1CF80917D038E7FCBCFB9
:1039B00080917D038D7FC7CF80917C038F7EB5CFB3
:1039C00080917C038F7DB1CF80917C038F7BADCFC5
:1039D0000E94100A80917C038F77A7CF80917C038F
:1039E000837FA3CF80917D038C7FADCF80917C03BB
:1039F00082FB992790F921E0922790FB82F990FBB6
:103A000083F993CF80917D03982F909591708E7F4D
:103A1000892B90FB81F997CF0E94100A90917C032B
:103A2000892F97FB87F9805880CF81E00E94581139
:103A30003FCF80E0FBCF81E049CFCF93DF93EB0115
:103A400086319C4511F50E94DB0F9A81992399F0EC
:103A50008A7A91E009F490E090934903811109C0BA
:103A600089E20E94B60F0E94201080E0DF91CF9182
:103A7000089585E3F6CF80914903811104C089E25E
:103A80000E94BD0FF0CF85E3FBCF81E0EFCF0F9316
:103A90001F93CF93DF93C42FD22FFC018281882301
:103AA000C9F040934C030E94732290934B03809380
:103AB0004A0380E28C0F883008F050C0C77081E064
:103AC00001C0880FCA95EAF7DF91CF911F910F913E
:103AD0000C94660710914C03141335C080914A036F
:103AE00090914B030E949F228436910560F5C0E2BD
:103AF000CD0F1D17B9F080E2810F883040F41770A8
:103B000081E001C0880F1A95EAF70E946D07C8305E
:103B100048F481E09D2F977001C0880F9A95EAF7CD
:103B20000E946607802F0E945E07C830B8F4D770E5
:103B300081E001C0880FDA95EAF7DF91CF911F91FC
:103B40000F910C946D0780E28C0F883038F4C770A9
:103B500081E001C0880FCA95EAF7EFCFDF91CF91DE
:103B60001F910F9108950F939C01CB01243F4CE5C9
:103B70003407A1F190F4293DFCE53F0749F12A3DC6
:103B80004CE53407E9F1283D3C45C1F0FC01828158
:103B90008823E1F110924C0319C0263FFCE53F0752
:103BA00019F1273F4CE5340729F1253F3C4571F7D2
:103BB00007E225EE44EE65EF7CE505C006E221EE66
:103BC00041EE68ED7CE50E94471D80E00F9108956D
:103BD00007E225EE45EE69ED7CE5F5CF06E221EE44
:103BE00040EE64EF7CE5EFCF06E221EE42EE66EFB9
:103BF0007CE5E9CF07E225EE46EE67EF7CE5E3CF13
:103C000008E221E045EE6AED7CE5DDCF81E0DECF24
:103C10001092B9008CE08093B80008959F92AF9203
:103C2000BF92CF92DF92EF92FF920F931F93CF93A9
:103C3000DF93B82EEB010E9473226C01EE24E39413
:103C4000F12CC431D10560F025E0E22EF12CCF3FFC
:103C5000DC0731F0CE0164E170E00E9478297B013D
:103C600084EAA82E94E8992E1092BC00A092BC0081
:103C70000E9473228C018091BC0087FF0CC0809150
:103C8000B900887F883031F18091B900887F803118
:103C900009F10FEF08C00E947322801B910B8E1553
:103CA0009F0548F30EEF1FEFCF3FDC07E9F2C60197
:103CB0000E949F228C179D07B8F2C801DF91CF9117
:103CC0001F910F91FF90EF90DF90CF90BF90AF903A
:103CD0009F900895B092BB009092BC000E94732206
:103CE0008C018091BC0087FF0AC02091B900287F19
:103CF000283111F0203469F600E010E0DECF0E9498
:103D00007322801B910B8E159F0558F3CBCF0F9319
:103D10001F93CF93DF93EB018093BB0084E88093E4
:103D2000BC000E9473228C018091BC0087FF11C0EF
:103D30002091B900287F81E090E0283211F490E0D2
:103D400080E0919581959109DF91CF911F910F911D
:103D50000895CF3FDC0741F30E947322801B910B33
:103D60008C179D0708F38EEF9FEFEECFCF92DF9277
:103D7000EF92FF920F931F93CF93DF936B018A0112
:103D8000F22EE32E622F732F0E940E1EAC01E6016D
:103D90000C0D1D1DC017D10711F057FF0DC084E990
:103DA0008093BC00CA01DF91CF911F910F91FF90CA
:103DB000EF90DF90CF9008956F2D7E2D89910E9416
:103DC000871EAC01E7CFCF92DF92EF92FF920F9365
:103DD0001F93CF93DF93C62F6A017901B8010E9428
:103DE0000E1E9C0197FD0DC0B8018C2F0E94871EEE
:103DF0009C01E601EC0CFD1CCE15DF0511F037FF30
:103E00000DC084E98093BC00C901DF91CF911F915F
:103E10000F91FF90EF90DF90CF900895B8018991B6
:103E20000E94871E9C01E8CF84E98093BC0008951E
:103E30008EE14A9B02C08150E1F74A9BFECF089574
:103E40005A9880E28A95F1F75A9A0895FC013BE06E
:103E50003A95F1F798E020E080E031E040E14A95C2
:103E6000F1F7880F4A9B02C08160232742E04A9500
:103E7000F1F7000040E14A95F1F7915079F790E1B0
:103E80009A95F1F799B132E03A95F1F7000040E1E7
:103E90004A95F1F792FB992790F992272081920F8A
:103EA00090830895EF92FF920F931F93CF93DF9328
:103EB0000F92CDB7DEB719828C017C01E60EF11CA2
:103EC0000E151F0561F481E09981911180E00F903A
:103ED000DF91CF911F910F91FF90EF9008950E9475
:103EE000181FCE0101960E94261FF80181938F01B1
:103EF000E7CF529A5A9A089552985A9AEA9AE9E65E
:103F0000F0E080818F7C808308956150770B91E091
:103F100001C0990F6A95EAF720E031E0911108C0DD
:103F2000222391F05A9A80E28A95F1F75A980895DF
:103F3000492F482339F05A9A232740E24A95F1F74E
:103F40009695ECCF5A98F9CF5A98EDCFFF920F93F0
:103F50001F93CF93DF93EC018C01060F111DC01747
:103F6000D10731F4DF91CF911F910F91FF90089508
:103F7000F9900E94201F68E08F2D0E94851FEFCFCF
:103F80001F920F920FB60F921124EF92FF920F9390
:103F90001F932F933F934F935F936F937F938F93D1
:103FA0009F93AF93BF93EF93FF93CF93DF930F92C2
:103FB000CDB7DEB719820E94181FCE0101960E946C
:103FC000261F282FA82FA695A695A695982F9295DF
:103FD00095708A2F8570980F892F83709695969586
:103FE000890F822787709981892B09F075C0A430C9
:103FF00008F072C080E18A95F1F75A9A529AB2E0BD
:10400000BA95F1F700C0EA2EF12C5A98EAE0AE9F7B
:10401000D0011124AB5BBE4F1896ED91FC9119971E
:104020003097B1F060911C0270911D0216962D918F
:104030003C911797260F371F13968D919C911497DB
:10404000680F791F15964C91159712968C910995CA
:104050008AE08E9DF0018F9DF00D1124EB5BFE4FE9
:104060006581662351F020911C0230911D028681EA
:104070009781820F931F0E94A61F0E94201FF0E1CC
:10408000FA95F1F75A9852985A9A80E18A95F1F781
:104090008AE08E9D80018F9D100D11240B5B1E4FB9
:1040A000D80112966C911297662371F120911C022F
:1040B00030911D0213968D919C91820F931F0E9447
:1040C000521FD801ED91FC91882311F088E001C0C6
:1040D00082E080830E94181F0F90DF91CF91FF91A3
:1040E000EF91BF91AF919F918F917F916F915F9170
:1040F0004F913F912F911F910F91FF90EF900F9053
:104100000FBE0F901F901895ED91FC91DFCF0F938C
:104110001F93CF93DF93EC0104970CF0A9C08AE0C2
:104120008C9FF0018D9FF00D1124EB5BFE4F808181
:104130009181892B09F49CC0F894529A5A9885E091
:104140008A95F1F700008C2F869585709C2F9570CD
:10415000890F982F937086958695890F8E0193E02D
:10416000000F111F9A95E1F7082B0E94201F00C035
:1041700068E0802F0E94851FA0E1AA95F1F7529870
:104180005A9A4A9B27C087E090E04A9925C08AE066
:104190008C9F80018D9F100D11240B5B1E4FF80129
:1041A00065816623A1F120911C0230911D02868158
:1041B0009781820F931F0E94521F811128C0529A2B
:1041C0005A9AD801ED91FC9182E08083789482E044
:1041D00090E016C000C0D5CF0197B9F4529A5A9A10
:1041E0008AE08C9FF0018D9FF00D1124EB5BFE4F58
:1041F0000190F081E02D81E08083789481E090E06F
:10420000DF91CF911F910F91089500C0BECF0E9402
:10421000181FB0E2BA95F1F75A98529AE0E1EA9580
:10422000F1F78AE08C9FF0018D9FF00D1124EB5B7C
:10423000FE4F6281662351F020911C0230911D02D5
:1042400083819481820F931F0E94A61F0E94201FCA
:104250008AE08C9FF0018D9FF00D1124EB5BFE4FE7
:104260000190F081E02D1082789490E080E0C8CF3A
:1042700084E090E0C5CF90933F0280933E02089582
:10428000909353038093520308950E947F168111E7
:1042900003C080914D030895E0915203F0915303C0
:1042A000309721F00190F081E02D099480E008958D
:1042B000E0915203F0915303309721F00280F38193
:1042C000E02D09940895209150033091510328174F
:1042D000390771F09093510380935003E09152039A
:1042E000F0915303309721F00680F781E02D099477
:1042F000089520914E0330914F032817390771F02C
:1043000090934F0380934E03E0915203F091530337
:10431000309721F00084F185E02D09940895AC01D7
:104320009C012E5F3F4F485F5F4F80E024173507A9
:1043300009F40895F90191919F019923B9F38F5FD1
:10434000F5CF9C01662351F0FC013296285F3F4F68
:104350008191861729F0E217F307D1F780E00895DD
:1043600081E008959C01FC0132968FEF90E041912D
:10437000461751F08F3F19F4411101C0892F9F5FFB
:104380009630A9F78F3F09F40895280F311D87FD56
:104390003A95F901628308959C01FC013296285FE9
:1043A0003F4F8191861303C0DF0111971C92E217E2
:1043B000F307B9F708950C94B2210C94CC21FC01B9
:1043C000329686E0DF011D928A95E9F708950895F7
:1043D0000C94E7218F5F809354030C94E82183E0D1
:1043E000809354030C94E8210C94EA2181E080939B
:1043F00054030C94E8210C94F62108958091A505AE
:10440000843031F10E942A061092550388E190E031
:1044100020E40FB6F894A895809360000FBE209317
:10442000600083B7817F846083BF83B7816083BF6F
:104430007894889583B78E7F83BF0FB6F894A8953C
:1044400080916000886180936000109260000FBED0
:10445000089508950895CF930E9429220E94EC1593
:104460000E942A22C0E08C2F0E94AE14811105C048
:10447000CF5FCA30C1F7CF91089581E0FCCF0E9491
:10448000100A0C9494061F921FB61F9211248F934A
:104490009F93AF93BF9380915503811113C0809177
:1044A0009D0590919E05A0919F05B091A005419614
:1044B000A11DB11D80939D0590939E05A0939F051E
:1044C000B093A005BF91AF919F918F911F901FBE98
:1044D0001F90189582E084BD93E095BD9AEF97BD3B
:1044E00080936E0008952FB7F89480919D05909168
:1044F0009E05A0919F05B091A0052FBF0895CF9371
:10450000DF9300D000D0CDB7DEB78FB7F8942091FD
:104510009D0530919E0540919F055091A0052983EE
:104520003A834B835C838FBF69817A818B819C81C5
:104530000F900F900F900F90DF91CF9108959C01F5
:104540004FB7F89480919D0590919E05A0919F058D
:10455000B091A0054FBF821B930B08950F931F933B
:10456000CF93DF9300D000D0CDB7DEB7462F572FC3
:10457000BC012FB7F89480919D0590919E05A09164
:104580009F05B091A0052FBF8C019D01041B150B49
:10459000260B370BC901B8010F900F900F900F90A9
:1045A000DF91CF911F910F91089578941F921FB6BC
:1045B0001F9211248F939F93AF93BF9380919D057A
:1045C00090919E05A0919F05B091A0050196A11D17
:1045D000B11D80939D0590939E05A0939F05B09378
:1045E000A005BF91AF919F918F911F901FBE1F900B
:1045F000189587E797E7909301088093000888E172
:104600009AE00FB6F894A895809360000FBE90933F
:104610006000FFCF80915E03089508950895CF93C1
:10462000DF93D82FC92F81E08093E9008FEF90911D
:10463000E800815095FD06C095ED9A95F1F70000D0
:104640008111F5CF8091E80085FF16C050E040E071
:1046500068E070E08D2F9C2F0E94CF248091E800AD
:104660008E778093E80088E0ED2FFC2FA6E5B3E07D
:1046700001900D928A95E1F7DF91CF910895089509
:1046800008958091A405811109C00E9457260E94B7
:10469000B4268091E20084608093E2000895109235
:1046A000A40508950C94F6216091A10581E06111A3
:1046B00001C080E00C94EF219091A50581E0943039
:1046C00009F080E06091A1050C94F42142E061ECD6
:1046D00081E00E94D3259091A50581E0943009F0F6
:1046E00080E06091A1050C94EA218091A7058930B2
:1046F00089F148F4823009F49EC0833009F459C02E
:10470000813041F008958A3009F485C08B3009F476
:104710006BC008958091A605813A09F049C0809147
:10472000E800877F8093E8008091AA059091AB050F
:10473000892B61F468E086E593E070E00E941E2515
:104740008091E8008B778093E800089560E090E026
:1047500080E0F3CF8091A605813251F58091AA05C2
:104760009091AB05892B21F58091E800877F80939C
:10477000E8008091E80082FF17C09091F3008091DB
:10478000F200029731F48091F100813011F086300F
:1047900021F48091F10080935E038091E8008B7793
:1047A0008093E8000C9407268091A5058111E1CF44
:1047B00008958091A605813AD9F78091AA05909134
:1047C000AB05892BA9F78091E800877F8093E800EB
:1047D0008091E80080FFFCCF809176018093F1000A
:1047E0008091E8008E77DCCF8091A605813201F7B9
:1047F0008091AA059091AB05892BD1F68091E800B4
:10480000877F8093E8000E9407268091A805809307
:1048100076010C94100A8091A605813249F68091A8
:10482000E800877F8093E8000E9407268091A90511
:1048300080935F0308958091A605813A09F0B8CF6F
:104840008091E800877F8093E8008091E80080FFF6
:10485000FCCF80915F03C2CF84B7877F84BF0FB640
:10486000F894A89580916000886180936000109210
:1048700060000FBE80E890E00FB6F894809361006E
:10488000909361000FBE0C94FB210E9457260E945A
:10489000B426E2EEF0E080818460808378940C940A
:1048A00040298AE691E00C9440218091A50585304D
:1048B000A9F48091A505853011F00C943F220E9447
:1048C000FE218091A3058823A1F30E942B22882337
:1048D00081F30E94B9240E94100AEBCF0895089535
:1048E0000C9472249C01FB01DA01832F99278330F9
:1048F0009105B9F060F481309105B1F1029761F44E
:1049000082E290E026E138E02D933C9308958132D5
:104910009105E1F0829709F190E080E030E020E03D
:10492000F3CFC9019927213059F08230910559F010
:10493000E2E1F8E0892B81F7849190E09F01E4CFD8
:10494000E0E0F8E0F9CFE0EFF7E0F6CF89E090E0C3
:1049500028E238E0EF2B01F7D7CF80E490E02AE49B
:1049600038E0EF2BC9F6D0CF82E190E028E338E0C1
:10497000CBCF80E189BD82E189BD09B400FEFDCFC6
:104980008091D8008F7D8093D8008091E000826074
:104990008093E0008091E00081FDFCCF0895AF920C
:1049A000BF92CF92DF92FF920F931F93CF93DF932B
:1049B0006C01EB018A010E942626F82E811123C08A
:1049C0000115110539F0F80180819181C81BD90BBF
:1049D000C80ED91EB12CA12C2097A9F08091E80017
:1049E00085FD22C08091E8008E778093E800011554
:1049F0001105A1F0F801808191818A0D9B1D9183A1
:104A0000808385E0F82E8F2DDF91CF911F910F913C
:104A1000FF90DF90CF90BF90AF9008950E94262620
:104A20008823D1F2F82EEFCFF60181916F018093A8
:104A3000F1002197FFEFAF1ABF0ACECFFC01CB01E7
:104A40002091AC053091AD052617370790F00097FF
:104A500029F42091E8002E772093E80040E00097A9
:104A600051F4411108C08091E80082FF31C080E01C
:104A70000895C901F3CF2091A5052223A9F125307E
:104A8000A9F12091E80023FD2DC02091E80022FD2E
:104A9000EACF2091E80020FFE2CF3091F30020918F
:104AA000F200009719F02830310558F041E0283025
:104AB000310509F040E02091E8002E772093E800CE
:104AC000CECF41914093F10001972F5F3F4FE9CF47
:104AD0008091A505882341F0853041F08091E80060
:104AE00083FFC1CF81E0089582E0089583E00895B7
:104AF000FC01CB012091AC053091AD05261737079D
:104B000090F0009729F42091E8002E772093E80098
:104B100040E0009751F4411108C08091E80082FF05
:104B200032C080E00895C901F3CF2091A50522236A
:104B3000B1F12530B1F12091E80023FD2EC0209184
:104B4000E80022FDEACF2091E80020FFE2CF30917B
:104B5000F3002091F200009719F02830310558F049
:104B600041E02830310509F040E02091E8002E773F
:104B70002093E800CECF44914093F1003196019705
:104B80002F5F3F4FE8CF8091A505882341F0853006
:104B900041F08091E80083FFC0CF81E0089582E07A
:104BA000089583E00895982F973028F08F708093B0
:104BB000E90081E008959093E900242F762F50E0DA
:104BC000981731F07091EC002091ED005091F000B9
:104BD00021FD02C09F5FE8CF3091EB003E7F309314
:104BE000EB003091ED003D7F3093ED003091EB0014
:104BF00031603093EB007093EC002093ED00509304
:104C0000F0002091EE0027FDE5CF80E0089580912F
:104C1000A60587FF13C08091E80082FF06C080913F
:104C2000E8008B778093E80004C08091A50581118E
:104C3000F2CF08958091A5058823D9F38091E800EB
:104C400080FFF8CF8091E8008E77ECCF2091E400D0
:104C50003091E50095E6A9012091EC00822F81704A
:104C600020FF06C08091E80080FF06C080E0089524
:104C70002091E80022FD1AC08091A505882389F0C3
:104C8000853089F08091EB0085FD0FC02091E40014
:104C90003091E50042175307F9F29150E1F684E0B4
:104CA000089582E0089583E0089581E008950E94C8
:104CB000C5260E94CD26E0EEF0E0808181608083F1
:104CC000E8EDF0E080818F77808319BCA7EDB0E03C
:104CD0008C918E7F8C9380818F7E80831092A4052F
:104CE00008950F931F93CF93DF930E94C5260E94D0
:104CF000CD26C8EDD0E088818F7788838881806851
:104D0000888388818F7D888319BC1092A5051092B5
:104D1000A1051092A3051092A20500EE10E0F80183
:104D200080818B7F808388818160888342E060E01E
:104D300080E00E94D325E1EEF0E080818E7F8083C9
:104D4000E2EEF0E0808181608083808188608083F2
:104D5000F80180818E7F8083888180618883DF91E4
:104D6000CF911F910F910895E8EDF0E080818F7E43
:104D70008083E7EDF0E080818160808384E082BF02
:104D800081E08093A4050C947126E8EDF0E0808129
:104D90008E7F80831092E20008951092DA001092C4
:104DA000E10008951F920F920FB60F9211242F93D6
:104DB0003F934F935F936F937F938F939F93AF93A3
:104DC000BF93EF93FF938091E10082FF0BC080912E
:104DD000E20082FF07C08091E1008B7F8093E100B9
:104DE0000E943F298091DA0080FF19C08091D8008D
:104DF00080FF15C08091DA008E7F8093DA00809169
:104E0000D90080FF94C080E189BD82E189BD09B4E9
:104E100000FEFDCF81E08093A5050E944123809193
:104E2000E10080FF19C08091E20080FF15C08091F1
:104E3000E2008E7F8093E2008091E20080618093A7
:104E4000E2008091D80080628093D80019BC85E090
:104E50008093A5050E9454238091E10084FF29C01E
:104E60008091E20084FF25C080E189BD82E189BD97
:104E700009B400FEFDCF8091D8008F7D8093D800CB
:104E80008091E1008F7E8093E1008091E2008F7E2F
:104E90008093E2008091E20081608093E200809143
:104EA000A105882309F449C084E08093A5050E94E8
:104EB0005C238091E10083FF29C08091E20083FFA1
:104EC00025C08091E100877F8093E10082E080939C
:104ED000A5051092A1058091E1008E7F8093E100ED
:104EE0008091E2008E7F8093E2008091E2008061F9
:104EF0008093E20042E060E080E00E94D325809150
:104F0000F00088608093F0000E945223FF91EF919F
:104F1000BF91AF919F918F917F916F915F914F91D1
:104F20003F912F910F900FBE0F901F90189519BCB5
:104F30001092A5050E944F2372CF8091E30087FD58
:104F400002C081E0B2CF83E0B0CF1F920F920FB6C4
:104F50000F921124FF920F931F932F933F934F9320
:104F60005F936F937F938F939F93AF93BF93CF93F1
:104F7000DF93EF93FF9309EE10E0F8018081C09179
:104F8000EC00C795CC27C7958F70FC2EF82A1082AD
:104F9000C0EFD0E08881877F888378940E94EE27D5
:104FA000F8011082888188608883CF2DCF70C083FC
:104FB000FF91EF91DF91CF91BF91AF919F918F9131
:104FC0007F916F915F914F913F912F911F910F9121
:104FD000FF900F900FBE0F901F9018951F93CF93C7
:104FE000DF93CDB7DEB7AA970FB6F894DEBF0FBE3A
:104FF000CDBF86EA95E0FC0101962091F100208367
:1050000025E08E3A9207B9F70E9475238091E80057
:1050100083FF1DC18091A6059091A7059A3008F0E5
:1050200016C1E92FF0E0E450F34D0C948C29803840
:1050300099F0823809F00BC18091AA058F708730F2
:1050400008F005C18093E9008091EB0085FB88277B
:1050500080F91092E90006C08091A2059091A30505
:10506000911182609091E800977F9093E80080937F
:10507000F1001092F1008091E8008E77E4C088235F
:1050800009F4D2C0823009F0E2C08091A8058111F4
:10509000D5C08091AA058F702FEF280F263008F019
:1050A000D6C08093E9002091EB0020FFC7C0933069
:1050B00031F48091EB0080628093EB00BFC090914F
:1050C000EB0090619093EB0021E030E001C0220FF3
:1050D0008A95EAF72093EA001092EA008091EB00AB
:1050E0008860EACF8111B3C01091A8051F77809125
:1050F000E3008078812B8093E3008091E800877F34
:105100008093E8000E9407268091E80080FFFCCF92
:105110008091E30080688093E30082E0111183E0D6
:105120008093A50594C08058823008F090C080918B
:10513000A8059091A9058C3D23E0920799F583E09D
:105140008A838AE289834FB7F894DE01139620E0C0
:105150003EE051E2E32FF0E050935700849120FFAE
:1051600003C082958F703F5F8F708A30C8F0895C72
:1051700090E08D939D932F5F243161F74FBF809115
:10518000E800877F8093E8006AE270E0CE01019634
:105190000E941E258091E8008B778093E80057C01D
:1051A000805DE6CF6091AA057091AB05AE014F5FBF
:1051B0005F4F0E947024BC01892B09F448C0809184
:1051C000E800877F8093E80089819A810E94782592
:1051D000E1CF8038E1F58091E800877F8093E80097
:1051E0008091A1058093F10046CF811130C090914C
:1051F000A805923060F58091E800877F8093E800F1
:105200009093A1050E9407268091A105882311F0A3
:1052100084E005C08091E30087FDFACF81E08093B0
:10522000A5050E94662313C08091A805813079F4FA
:1052300081E0933009F080E08093A3051092E900AB
:105240008091E800877F8093E8000E940726809184
:10525000E80083FF0AC08091E800877F8093E80020
:105260008091EB0080628093EB00AA960FB6F894D1
:10527000DEBF0FBECDBFDF91CF911F91089508957E
:10528000CF938091A505882399F08091E900C09182
:10529000EC00C795CC27C7958F70C82B1092E900FA
:1052A0008091E80083FD0E94EE27CF70C093E90053
:1052B000CF9108950E9457261092A5050895E8ED14
:1052C000F0E08081806180838AE18A95F1F700C0F7
:1052D0008091D90081700895991B79E004C0991FCD
:1052E000961708F0961B881F7A95C9F78095089540
:1052F000AA1BBB1B51E107C0AA1FBB1FA617B707FC
:1053000010F0A61BB70B881F991F5A95A9F7809517
:105310009095BC01CD010895EE0FFF1F0590F4910B
:10532000E02D0994FB01DC0102C005900D92415073
:105330005040D8F70895FB01DC0104C08D91019025
:10534000801921F441505040C8F7881B990B0895EB
:10535000FB01DC0102C001900D9241505040D8F792
:105360000895DC0101C06D9341505040E0F708956D
:10537000FB01DC0101900D920020E1F70895AEE001
:10538000B0E0E5ECF9E20C94B62C0D891E898F890A
:10539000988D26E02C831A83098397FF02C080E052
:1053A00090E801979E838D83AE01455E5F4F698DC6
:1053B0007A8DCE0101960E94EF294D815E8157FDC5
:1053C0000AC02F813885421753070CF49A01020F47
:1053D000131FF80110822E96E4E00C94D22CAFE05B
:1053E000B0E0E5EFF9E20C94A82C7C013B018A01C6
:1053F000DC0117961C921E92169713968C9181FFD2
:10540000BEC19AE0292EFE0131964F01D7011396B5
:105410009C91F30193FD859193FF81913F01882336
:1054200009F444C1853239F493FD859193FF81914C
:105430003F01853229F4B70190E00E94D82BE6CFD6
:10544000B12C412C512CBFE1B51538F08B3209F14C
:1054500088F4803201F1833221F157FC3AC020ED0B
:10546000280F2A3040F556FE1FC0B29C200D112493
:10547000B22E06C08D3291F0803379F7689450F8DF
:10548000F30193FD859193FF81913F018111DBCF62
:1054900020C0689451F8689452F8F2CF689453F899
:1054A000EFCF689454F8ECCF429C200D1124422E8B
:1054B000689455F8E5CF8E3229F456FCF7C068940D
:1054C00056F8DECF8C3619F4689457F8D9CF883661
:1054D000B9F2982F9F7D95549330C0F08336A1F197
:1054E0008337C1F1833509F05BC0D801CD90DD90E1
:1054F0008D016B2D70E056FC02C06FEF7FEFC6018F
:105500000E94C22B5C01689457F80AC00C5F1F4FC1
:10551000EFE3E983AA24A394B12C6401E89457F83B
:1055200053FC04C04A141B0409F018F5342CA114D0
:10553000B10431F5332009F469CFB70180E290E07E
:105540000E94D82B3A94F6CFD8018C9189830E5FB4
:105550001F4FE0CFF801C190D1908F016B2D70E00B
:1055600056FC02C06FEF7FEFC6010E94CD2B5C019D
:10557000D5CFB70180E290E00E94D82B4A94D2CFD9
:10558000F60157FC859157FE81916F01B70190E0BC
:105590000E94D82B31103A94B1E0AB1AB108C7CFB2
:1055A000843619F0893609F071C0F80157FE67C0DA
:1055B00061917191819191918F01E52DEF76DE2EB0
:1055C00097FF09C090958095709561957F4F8F4F9B
:1055D0009F4F6894D7F82AE030E0A4010E94082C7D
:1055E000C82EC818AC2C5D2CD6FE0CC0E89450F820
:1055F000CB1440F4D4FE05C0D2FC03C05D2D5E7E0A
:10560000552EAB2C54FE93C0FE01EC0DF11D808194
:10561000803309F085C0652D697E562E752D787012
:10562000372E53FC93C050FE8DC0BC2CA41410F434
:10563000B40CBA1854FE90C0B70180E390E00E9409
:10564000D82B52FE07C088E751FC88E590E0B701EF
:105650000E94D82BCB1408F48BC0CA94D12C8FEFA6
:10566000C81AD80AC80CD91CD6018E916D01B70191
:1056700090E00E94D82B8C149D04B1F75BCF619110
:105680007191072E000C880B990B96CFD52CE894BE
:10569000D4F82AE0853729F1F52DF97FDF2E803700
:1056A000A1F058F48835A1F08F36D1F0F70186814A
:1056B00097812F96E2E10C94C42C8837B9F7D4FE79
:1056C00002C06894D2F820E10CC06894D4F8F7CFF7
:1056D00054FE03C02F2F2660D22E20E132E002C0FC
:1056E00028E030E0F801D7FE15C041915191619159
:1056F00071914C875D876E877F878F01A4016C85D0
:105700007D858E859F850E94082CC82EC818E89438
:10571000D7F868CF81919191AC0170E060E0E9CF5A
:1057200052FC02C0A3947ACFA394A39477CF852D83
:10573000867809F473CFF6CFB70180E290E00E943B
:10574000D82BA394A414C0F3312C74CF342C3A1862
:10575000A41408F46FCFF8CF852D867809F47ACF9A
:105760008BE251FE80E257FC8DE2B70190E070CFF2
:10577000B70180E390E00E94D82BBA946BCF8FEFF3
:105780009FEF97CFFC010590615070400110D8F752
:10579000809590958E0F9F1F0895FC016150704079
:1057A00001900110D8F7809590958E0F9F1F089556
:1057B0000F931F93CF93DF93182F092FEB018B814A
:1057C00081FD09C01FEF0FEF812F902FDF91CF9147
:1057D0001F910F91089582FF14C02E813F818C810B
:1057E0009D81281739073CF4E881F981CF010196A2
:1057F0009983888310838E819F8101969F838E83F6
:10580000E3CFE885F985812F0995892BA1F3DACFBC
:10581000FA01AA27283051F1203181F1E8946F93E1
:105820006E7F6E5F7F4F8F4F9F4FAF4FB1E03ED087
:10583000B4E03CD0670F781F891F9A1FA11D680F25
:10584000791F8A1F911DA11D6A0F711D811D911D58
:10585000A11D20D009F468943F912AE0269F1124CD
:105860003019305D3193DEF6CF010895462F477031
:10587000405D4193B3E00FD0C9F7F6CF462F4F708C
:10588000405D4A3318F0495D31FD4052419302D0EA
:10589000A9F7EACFB4E0A695979587957795679590
:1058A000BA95C9F700976105710508959B01AC0190
:1058B0000A2E06945795479537952795BA95C9F7B7
:1058C000620F731F841F951FA01D0895F999FECFC5
:1058D00092BD81BDF89A992780B50895A8E1B0E0FE
:1058E00042E050E00C949A2C262FF999FECF92BDFD
:1058F00081BDF89A019700B4021639F01FBA20BD95
:105900000FB6F894FA9AF99A0FBE08950396272FC6
:105910000E94752C0E94742C252F0E94752C242F18
:105920000C94752C0196272F0E94752C0C94742CC6
:10593000DC01CB01FC01F999FECF06C0F2BDE1BD4F
:10594000F89A319600B40D9241505040B8F708953E
:105950002F923F924F925F926F927F928F929F927F
:10596000AF92BF92CF92DF92EF92FF920F931F936D
:10597000CF93DF93CDB7DEB7CA1BDB0B0FB6F8941E
:10598000DEBF0FBECDBF09942A88398848885F845E
:105990006E847D848C849B84AA84B984C884DF80CF
:1059A000EE80FD800C811B81AA81B981CE0FD11DB3
:1059B0000FB6F894DEBF0FBECDBFED010895F89489
:1059C000FFCF921C981C9C1CAA1CAE1CB21CB61CBF
:1059D000BC1CC41CC81CCC1CD01CDC1CE01CE41C63
:1059E000E81CEE1C0C1DF61CA61CD41CD81CC01CEC
:1059F000F21C021D151D191D17283F2827293F28B5
:0C5A00002729722893282729E928F52877
:105A0C00808182838485868788898A8B8C8D8E8F12
:105A1C009091929394A0A1A2A3A4A5A6A7A8A9AA89
:105A2C00ABACADAEAFB0B1B2B3B4C0C1C2C3C4C500
:105A3C00C6C7C8C9CACBCCCDCECFD0D1D2D3D40057
:105A4C006400DA02019403000000010000000094DD
:105A5C000300000005010000009403040600000090
:105A6C000000000021007F2200030A230F233F23A4
:105A7C000D2340230E23014C617965723A20446555
:105A8C006661756C74004C617965723A205261697B
:105A9C007365004C617965723A204C6F77657200C2
:105AAC004C617965723A2041646A757374004C617B
:105ABC007965723A20556E6465662D256C640025F7
:105ACC00647825642C206B253264203A20256300F1
